{
  "contractName": "PredictionMarket",
  "abi": [
    {
      "inputs": [],
      "stateMutability": "nonpayable",
      "type": "constructor"
    },
    {
      "anonymous": false,
      "inputs": [
        {
          "indexed": true,
          "internalType": "uint256",
          "name": "predictionId",
          "type": "uint256"
        },
        {
          "indexed": false,
          "internalType": "address",
          "name": "participant",
          "type": "address"
        },
        {
          "indexed": false,
          "internalType": "uint256",
          "name": "amount",
          "type": "uint256"
        },
        {
          "indexed": false,
          "internalType": "uint8",
          "name": "choice",
          "type": "uint8"
        }
      ],
      "name": "BetPlaced",
      "type": "event"
    },
    {
      "anonymous": false,
      "inputs": [
        {
          "indexed": true,
          "internalType": "uint256",
          "name": "predictionId",
          "type": "uint256"
        },
        {
          "indexed": false,
          "internalType": "string",
          "name": "question",
          "type": "string"
        },
        {
          "indexed": false,
          "internalType": "uint256",
          "name": "deadline",
          "type": "uint256"
        }
      ],
      "name": "PredictionCreated",
      "type": "event"
    },
    {
      "anonymous": false,
      "inputs": [
        {
          "indexed": true,
          "internalType": "uint256",
          "name": "predictionId",
          "type": "uint256"
        },
        {
          "indexed": false,
          "internalType": "uint256",
          "name": "outcome",
          "type": "uint256"
        }
      ],
      "name": "PredictionResolved",
      "type": "event"
    },
    {
      "anonymous": false,
      "inputs": [
        {
          "indexed": true,
          "internalType": "uint256",
          "name": "predictionId",
          "type": "uint256"
        },
        {
          "indexed": false,
          "internalType": "address",
          "name": "claimant",
          "type": "address"
        },
        {
          "indexed": false,
          "internalType": "uint256",
          "name": "amount",
          "type": "uint256"
        }
      ],
      "name": "RewardClaimed",
      "type": "event"
    },
    {
      "inputs": [],
      "name": "owner",
      "outputs": [
        {
          "internalType": "address",
          "name": "",
          "type": "address"
        }
      ],
      "stateMutability": "view",
      "type": "function"
    },
    {
      "inputs": [],
      "name": "predictionCount",
      "outputs": [
        {
          "internalType": "uint256",
          "name": "",
          "type": "uint256"
        }
      ],
      "stateMutability": "view",
      "type": "function"
    },
    {
      "inputs": [
        {
          "internalType": "uint256",
          "name": "",
          "type": "uint256"
        }
      ],
      "name": "predictions",
      "outputs": [
        {
          "internalType": "string",
          "name": "question",
          "type": "string"
        },
        {
          "internalType": "uint256",
          "name": "deadline",
          "type": "uint256"
        },
        {
          "internalType": "uint256",
          "name": "totalYesBets",
          "type": "uint256"
        },
        {
          "internalType": "uint256",
          "name": "totalNoBets",
          "type": "uint256"
        },
        {
          "internalType": "uint256",
          "name": "outcome",
          "type": "uint256"
        },
        {
          "internalType": "bool",
          "name": "resolved",
          "type": "bool"
        }
      ],
      "stateMutability": "view",
      "type": "function"
    },
    {
      "stateMutability": "payable",
      "type": "receive"
    },
    {
      "inputs": [
        {
          "internalType": "string",
          "name": "_question",
          "type": "string"
        },
        {
          "internalType": "uint256",
          "name": "_deadline",
          "type": "uint256"
        }
      ],
      "name": "createPrediction",
      "outputs": [],
      "stateMutability": "nonpayable",
      "type": "function"
    },
    {
      "inputs": [
        {
          "internalType": "uint256",
          "name": "_predictionId",
          "type": "uint256"
        },
        {
          "internalType": "uint8",
          "name": "_choice",
          "type": "uint8"
        }
      ],
      "name": "placeBet",
      "outputs": [],
      "stateMutability": "payable",
      "type": "function"
    },
    {
      "inputs": [
        {
          "internalType": "uint256",
          "name": "_predictionId",
          "type": "uint256"
        },
        {
          "internalType": "uint256",
          "name": "_outcome",
          "type": "uint256"
        }
      ],
      "name": "resolvePrediction",
      "outputs": [],
      "stateMutability": "nonpayable",
      "type": "function"
    },
    {
      "inputs": [
        {
          "internalType": "uint256",
          "name": "_predictionId",
          "type": "uint256"
        }
      ],
      "name": "claimReward",
      "outputs": [],
      "stateMutability": "nonpayable",
      "type": "function"
    }
  ],
  "bytecode": "0x6080604052348015600e575f5ffd5b5060015f819055503360035f6101000a81548173ffffffffffffffffffffffffffffffffffffffff021916908373ffffffffffffffffffffffffffffffffffffffff1602179055506118e4806100635f395ff3fe608060405260043610610072575f3560e01c80638e0596a21161004d5780638e0596a2146101045780639576d3661461012e578063ae169a5014610156578063fefac3db1461017e57610079565b80624fbbb01461007d57806303edf914146100be5780638da5cb5b146100da57610079565b3661007957005b5f5ffd5b348015610088575f5ffd5b506100a3600480360381019061009e9190610b51565b6101a6565b6040516100b596959493929190610c15565b60405180910390f35b6100d860048036038101906100d39190610cb1565b610270565b005b3480156100e5575f5ffd5b506100ee610578565b6040516100fb9190610d2e565b60405180910390f35b34801561010f575f5ffd5b5061011861059d565b6040516101259190610d47565b60405180910390f35b348015610139575f5ffd5b50610154600480360381019061014f9190610e8c565b6105a3565b005b348015610161575f5ffd5b5061017c60048036038101906101779190610b51565b61066c565b005b348015610189575f5ffd5b506101a4600480360381019061019f9190610ee6565b6108cc565b005b6002602052805f5260405f205f91509050805f0180546101c590610f51565b80601f01602080910402602001604051908101604052809291908181526020018280546101f190610f51565b801561023c5780601f106102135761010080835404028352916020019161023c565b820191905f5260205f20905b81548152906001019060200180831161021f57829003601f168201915b505050505090806001015490806005015490806006015490806007015490806008015f9054906101000a900460ff16905086565b610278610ab7565b60018160ff16148061028d575060028160ff16145b6102cc576040517f08c379a00000000000000000000000000000000000000000000000000000000081526004016102c390610fcb565b60405180910390fd5b5f60025f8481526020019081526020015f20905080600101544210610326576040517f08c379a000000000000000000000000000000000000000000000000000000000815260040161031d90611033565b60405180910390fd5b5f3411610368576040517f08c379a000000000000000000000000000000000000000000000000000000000815260040161035f9061109b565b60405180910390fd5b5f816003015f3373ffffffffffffffffffffffffffffffffffffffff1673ffffffffffffffffffffffffffffffffffffffff1681526020019081526020015f20905034815f015f8282546103bc91906110e6565b9250508190555082816001015f6101000a81548160ff021916908360ff160217905550816004015f3373ffffffffffffffffffffffffffffffffffffffff1673ffffffffffffffffffffffffffffffffffffffff1681526020019081526020015f205f9054906101000a900460ff166104e9578160020133908060018154018082558091505060019003905f5260205f20015f9091909190916101000a81548173ffffffffffffffffffffffffffffffffffffffff021916908373ffffffffffffffffffffffffffffffffffffffff1602179055506001826004015f3373ffffffffffffffffffffffffffffffffffffffff1673ffffffffffffffffffffffffffffffffffffffff1681526020019081526020015f205f6101000a81548160ff0219169083151502179055505b60018360ff16036105135734826005015f82825461050791906110e6565b9250508190555061052e565b34826006015f82825461052691906110e6565b925050819055505b837fe90186097616cbeb30ffc786b44501e1362f5e0a316a96c5ab82a0551f9d2f0533348660405161056293929190611128565b60405180910390a25050610574610b04565b5050565b60035f9054906101000a900473ffffffffffffffffffffffffffffffffffffffff1681565b60015481565b4281116105e5576040517f08c379a00000000000000000000000000000000000000000000000000000000081526004016105dc906111a7565b60405180910390fd5b5f60015f8154809291906105f8906111c5565b9190505590505f60025f8381526020019081526020015f20905083815f01908161062291906113ac565b50828160010181905550817f259c48cf151ba2e96755462b690d31372c37d0eee3779b078f1f7992e3b38ae7858560405161065e92919061147b565b60405180910390a250505050565b610674610ab7565b5f60025f8381526020019081526020015f209050806008015f9054906101000a900460ff166106d8576040517f08c379a00000000000000000000000000000000000000000000000000000000081526004016106cf906114f3565b60405180910390fd5b5f816003015f3373ffffffffffffffffffffffffffffffffffffffff1673ffffffffffffffffffffffffffffffffffffffff1681526020019081526020015f2090505f815f015411801561073b57508060010160019054906101000a900460ff16155b61077a576040517f08c379a00000000000000000000000000000000000000000000000000000000081526004016107719061155b565b60405180910390fd5b8160070154816001015f9054906101000a900460ff1660ff16146107d3576040517f08c379a00000000000000000000000000000000000000000000000000000000081526004016107ca906115c3565b60405180910390fd5b5f60018360070154146107ea5782600601546107f0565b82600501545b90505f818460060154856005015461080891906110e6565b845f015461081691906115e1565b610820919061164f565b905060018360010160016101000a81548160ff0219169083151502179055503373ffffffffffffffffffffffffffffffffffffffff166108fc8290811502906040515f60405180830381858888f19350505050158015610882573d5f5f3e3d5ffd5b50847f24b5efa61dd1cfc659205a97fb8ed868f3cb8c81922bab2b96423e5de1de2cb733836040516108b592919061167f565b60405180910390a2505050506108c9610b04565b50565b60035f9054906101000a900473ffffffffffffffffffffffffffffffffffffffff1673ffffffffffffffffffffffffffffffffffffffff163373ffffffffffffffffffffffffffffffffffffffff161461095b576040517f08c379a0000000000000000000000000000000000000000000000000000000008152600401610952906116f0565b60405180910390fd5b600181148061096a5750600281145b6109a9576040517f08c379a00000000000000000000000000000000000000000000000000000000081526004016109a090611758565b60405180910390fd5b5f60025f8481526020019081526020015f209050806008015f9054906101000a900460ff1615610a0e576040517f08c379a0000000000000000000000000000000000000000000000000000000008152600401610a05906117c0565b60405180910390fd5b8060010154421015610a55576040517f08c379a0000000000000000000000000000000000000000000000000000000008152600401610a4c90611828565b60405180910390fd5b8181600701819055506001816008015f6101000a81548160ff021916908315150217905550827fe0d11dcca65d89777e74a05aabfc99281a4c018644b33af1b397a7dbf5e2911b83604051610aaa9190610d47565b60405180910390a2505050565b60025f5403610afb576040517f08c379a0000000000000000000000000000000000000000000000000000000008152600401610af290611890565b60405180910390fd5b60025f81905550565b60015f81905550565b5f604051905090565b5f5ffd5b5f5ffd5b5f819050919050565b610b3081610b1e565b8114610b3a575f5ffd5b50565b5f81359050610b4b81610b27565b92915050565b5f60208284031215610b6657610b65610b16565b5b5f610b7384828501610b3d565b91505092915050565b5f81519050919050565b5f82825260208201905092915050565b8281835e5f83830152505050565b5f601f19601f8301169050919050565b5f610bbe82610b7c565b610bc88185610b86565b9350610bd8818560208601610b96565b610be181610ba4565b840191505092915050565b610bf581610b1e565b82525050565b5f8115159050919050565b610c0f81610bfb565b82525050565b5f60c0820190508181035f830152610c2d8189610bb4565b9050610c3c6020830188610bec565b610c496040830187610bec565b610c566060830186610bec565b610c636080830185610bec565b610c7060a0830184610c06565b979650505050505050565b5f60ff82169050919050565b610c9081610c7b565b8114610c9a575f5ffd5b50565b5f81359050610cab81610c87565b92915050565b5f5f60408385031215610cc757610cc6610b16565b5b5f610cd485828601610b3d565b9250506020610ce585828601610c9d565b9150509250929050565b5f73ffffffffffffffffffffffffffffffffffffffff82169050919050565b5f610d1882610cef565b9050919050565b610d2881610d0e565b82525050565b5f602082019050610d415f830184610d1f565b92915050565b5f602082019050610d5a5f830184610bec565b92915050565b5f5ffd5b5f5ffd5b7f4e487b71000000000000000000000000000000000000000000000000000000005f52604160045260245ffd5b610d9e82610ba4565b810181811067ffffffffffffffff82111715610dbd57610dbc610d68565b5b80604052505050565b5f610dcf610b0d565b9050610ddb8282610d95565b919050565b5f67ffffffffffffffff821115610dfa57610df9610d68565b5b610e0382610ba4565b9050602081019050919050565b828183375f83830152505050565b5f610e30610e2b84610de0565b610dc6565b905082815260208101848484011115610e4c57610e4b610d64565b5b610e57848285610e10565b509392505050565b5f82601f830112610e7357610e72610d60565b5b8135610e83848260208601610e1e565b91505092915050565b5f5f60408385031215610ea257610ea1610b16565b5b5f83013567ffffffffffffffff811115610ebf57610ebe610b1a565b5b610ecb85828601610e5f565b9250506020610edc85828601610b3d565b9150509250929050565b5f5f60408385031215610efc57610efb610b16565b5b5f610f0985828601610b3d565b9250506020610f1a85828601610b3d565b9150509250929050565b7f4e487b71000000000000000000000000000000000000000000000000000000005f52602260045260245ffd5b5f6002820490506001821680610f6857607f821691505b602082108103610f7b57610f7a610f24565b5b50919050565b7f496e76616c69642063686f6963652028313d5965732c20323d4e6f292e0000005f82015250565b5f610fb5601d83610b86565b9150610fc082610f81565b602082019050919050565b5f6020820190508181035f830152610fe281610fa9565b9050919050565b7f42657474696e6720636c6f7365642e00000000000000000000000000000000005f82015250565b5f61101d600f83610b86565b915061102882610fe9565b602082019050919050565b5f6020820190508181035f83015261104a81611011565b9050919050565b7f42657420616d6f756e74206d757374206265203e20302e0000000000000000005f82015250565b5f611085601783610b86565b915061109082611051565b602082019050919050565b5f6020820190508181035f8301526110b281611079565b9050919050565b7f4e487b71000000000000000000000000000000000000000000000000000000005f52601160045260245ffd5b5f6110f082610b1e565b91506110fb83610b1e565b9250828201905080821115611113576111126110b9565b5b92915050565b61112281610c7b565b82525050565b5f60608201905061113b5f830186610d1f565b6111486020830185610bec565b6111556040830184611119565b949350505050565b7f446561646c696e65206d75737420626520696e20746865206675747572652e005f82015250565b5f611191601f83610b86565b915061119c8261115d565b602082019050919050565b5f6020820190508181035f8301526111be81611185565b9050919050565b5f6111cf82610b1e565b91507fffffffffffffffffffffffffffffffffffffffffffffffffffffffffffffffff8203611201576112006110b9565b5b600182019050919050565b5f819050815f5260205f209050919050565b5f6020601f8301049050919050565b5f82821b905092915050565b5f600883026112687fffffffffffffffffffffffffffffffffffffffffffffffffffffffffffffffff8261122d565b611272868361122d565b95508019841693508086168417925050509392505050565b5f819050919050565b5f6112ad6112a86112a384610b1e565b61128a565b610b1e565b9050919050565b5f819050919050565b6112c683611293565b6112da6112d2826112b4565b848454611239565b825550505050565b5f5f905090565b6112f16112e2565b6112fc8184846112bd565b505050565b5b8181101561131f576113145f826112e9565b600181019050611302565b5050565b601f821115611364576113358161120c565b61133e8461121e565b8101602085101561134d578190505b6113616113598561121e565b830182611301565b50505b505050565b5f82821c905092915050565b5f6113845f1984600802611369565b1980831691505092915050565b5f61139c8383611375565b9150826002028217905092915050565b6113b582610b7c565b67ffffffffffffffff8111156113ce576113cd610d68565b5b6113d88254610f51565b6113e3828285611323565b5f60209050601f831160018114611414575f8415611402578287015190505b61140c8582611391565b865550611473565b601f1984166114228661120c565b5f5b8281101561144957848901518255600182019150602085019450602081019050611424565b868310156114665784890151611462601f891682611375565b8355505b6001600288020188555050505b505050505050565b5f6040820190508181035f8301526114938185610bb4565b90506114a26020830184610bec565b9392505050565b7f4e6f74207265736f6c7665642e000000000000000000000000000000000000005f82015250565b5f6114dd600d83610b86565b91506114e8826114a9565b602082019050919050565b5f6020820190508181035f83015261150a816114d1565b9050919050565b7f496e76616c696420636c61696d2e0000000000000000000000000000000000005f82015250565b5f611545600e83610b86565b915061155082611511565b602082019050919050565b5f6020820190508181035f83015261157281611539565b9050919050565b7f596f75206c6f73742e00000000000000000000000000000000000000000000005f82015250565b5f6115ad600983610b86565b91506115b882611579565b602082019050919050565b5f6020820190508181035f8301526115da816115a1565b9050919050565b5f6115eb82610b1e565b91506115f683610b1e565b925082820261160481610b1e565b9150828204841483151761161b5761161a6110b9565b5b5092915050565b7f4e487b71000000000000000000000000000000000000000000000000000000005f52601260045260245ffd5b5f61165982610b1e565b915061166483610b1e565b92508261167457611673611622565b5b828204905092915050565b5f6040820190506116925f830185610d1f565b61169f6020830184610bec565b9392505050565b7f4f6e6c79206f776e65722063616e2063616c6c20746869732e000000000000005f82015250565b5f6116da601983610b86565b91506116e5826116a6565b602082019050919050565b5f6020820190508181035f830152611707816116ce565b9050919050565b7f496e76616c6964206f7574636f6d652e000000000000000000000000000000005f82015250565b5f611742601083610b86565b915061174d8261170e565b602082019050919050565b5f6020820190508181035f83015261176f81611736565b9050919050565b7f416c7265616479207265736f6c7665642e0000000000000000000000000000005f82015250565b5f6117aa601183610b86565b91506117b582611776565b602082019050919050565b5f6020820190508181035f8301526117d78161179e565b9050919050565b7f446561646c696e65206e6f74206d65742e0000000000000000000000000000005f82015250565b5f611812601183610b86565b915061181d826117de565b602082019050919050565b5f6020820190508181035f83015261183f81611806565b9050919050565b7f5265656e7472616e637947756172643a207265656e7472616e742063616c6c005f82015250565b5f61187a601f83610b86565b915061188582611846565b602082019050919050565b5f6020820190508181035f8301526118a78161186e565b905091905056fea2646970667358221220a0f7d2ec88c2c06149e7d447b65c80b43d10aec63ae57de1cfca2f869b048f5964736f6c634300081c0033",
  "immutableReferences": {},
  "source": "// SPDX-License-Identifier: MIT\r\npragma solidity  ^0.8.28;\r\nimport \"../node_modules/@openzeppelin/contracts/security/ReentrancyGuard.sol\";\r\ncontract PredictionMarket is ReentrancyGuard {\r\n    struct BetInfo {\r\n        uint256 amount;\r\n        uint8 choice; // 1 = Yes, 2 = No\r\n        bool claimed;\r\n    }\r\n\r\n    struct Prediction {\r\n        string question;\r\n        uint256 deadline;\r\n        address[] participants;\r\n        mapping(address => BetInfo) bets;\r\n        mapping(address => bool) hasParticipated;\r\n        uint256 totalYesBets;\r\n        uint256 totalNoBets;\r\n        uint256 outcome; // 0 = unresolved, 1 = Yes, 2 = No\r\n        bool resolved;\r\n    }\r\n\r\n    uint256 public predictionCount;\r\n    mapping(uint256 => Prediction) public predictions;\r\n    address public owner;\r\n\r\n    event PredictionCreated(uint256 indexed predictionId, string question, uint256 deadline);\r\n    event BetPlaced(uint256 indexed predictionId, address participant, uint256 amount, uint8 choice);\r\n    event PredictionResolved(uint256 indexed predictionId, uint256 outcome);\r\n    event RewardClaimed(uint256 indexed predictionId, address claimant, uint256 amount);\r\n\r\n    modifier onlyOwner() {\r\n        require(msg.sender == owner, \"Only owner can call this.\");\r\n        _;\r\n    }\r\n\r\n    constructor() {\r\n        owner = msg.sender;\r\n    }\r\n\r\n    function createPrediction(string memory _question, uint256 _deadline) external {\r\n        require(_deadline > block.timestamp, \"Deadline must be in the future.\");\r\n        uint256 predictionId = predictionCount++;\r\n        Prediction storage p = predictions[predictionId];\r\n        p.question = _question;\r\n        p.deadline = _deadline;\r\n        emit PredictionCreated(predictionId, _question, _deadline);\r\n    }\r\n\r\n    function placeBet(uint256 _predictionId, uint8 _choice) external payable nonReentrant {\r\n        require(_choice == 1 || _choice == 2, \"Invalid choice (1=Yes, 2=No).\");\r\n        Prediction storage p = predictions[_predictionId];\r\n        require(block.timestamp < p.deadline, \"Betting closed.\");\r\n        require(msg.value > 0, \"Bet amount must be > 0.\");\r\n\r\n        BetInfo storage bet = p.bets[msg.sender];\r\n        bet.amount += msg.value;\r\n        bet.choice = _choice;\r\n\r\n        if (!p.hasParticipated[msg.sender]) {\r\n            p.participants.push(msg.sender);\r\n            p.hasParticipated[msg.sender] = true;\r\n        }\r\n\r\n        if (_choice == 1) p.totalYesBets += msg.value;\r\n        else p.totalNoBets += msg.value;\r\n\r\n        emit BetPlaced(_predictionId, msg.sender, msg.value, _choice);\r\n    }\r\n\r\n    function resolvePrediction(uint256 _predictionId, uint256 _outcome) external onlyOwner {\r\n        require(_outcome == 1 || _outcome == 2, \"Invalid outcome.\");\r\n        Prediction storage p = predictions[_predictionId];\r\n        require(!p.resolved, \"Already resolved.\");\r\n        require(block.timestamp >= p.deadline, \"Deadline not met.\");\r\n        p.outcome = _outcome;\r\n        p.resolved = true;\r\n        emit PredictionResolved(_predictionId, _outcome);\r\n    }\r\n\r\n    function claimReward(uint256 _predictionId) external nonReentrant {\r\n        Prediction storage p = predictions[_predictionId];\r\n        require(p.resolved, \"Not resolved.\");\r\n        BetInfo storage bet = p.bets[msg.sender];\r\n        require(bet.amount > 0 && !bet.claimed, \"Invalid claim.\");\r\n        require(bet.choice == p.outcome, \"You lost.\");\r\n\r\n        uint256 totalPool = (p.outcome == 1) ? p.totalYesBets : p.totalNoBets;\r\n        uint256 reward = (bet.amount * (p.totalYesBets + p.totalNoBets)) / totalPool;\r\n\r\n        bet.claimed = true;\r\n        payable(msg.sender).transfer(reward);\r\n        emit RewardClaimed(_predictionId, msg.sender, reward);\r\n    }\r\n\r\n    receive() external payable {}\r\n}",
  "sourcePath": "S:\\miniproject\\contracts\\PredictionMarket.sol",
  "compiler": {
    "name": "solc",
    "version": "0.8.28+commit.7893614a.Emscripten.clang"
  },
  "schemaVersion": "3.4.16",
  "updatedAt": "2025-02-02T13:30:35.185Z",
  "devdoc": {
    "kind": "dev",
    "methods": {},
    "version": 1
  },
  "userdoc": {
    "kind": "user",
    "methods": {},
    "version": 1
  }
}