{
  "contractName": "PredictionMarket",
  "abi": [
    {
      "inputs": [],
      "stateMutability": "nonpayable",
      "type": "constructor"
    },
    {
      "anonymous": false,
      "inputs": [
        {
          "indexed": true,
          "internalType": "uint256",
          "name": "predictionId",
          "type": "uint256"
        },
        {
          "indexed": false,
          "internalType": "address",
          "name": "participant",
          "type": "address"
        },
        {
          "indexed": false,
          "internalType": "uint256",
          "name": "amount",
          "type": "uint256"
        },
        {
          "indexed": false,
          "internalType": "uint8",
          "name": "choice",
          "type": "uint8"
        }
      ],
      "name": "BetPlaced",
      "type": "event"
    },
    {
      "anonymous": false,
      "inputs": [
        {
          "indexed": true,
          "internalType": "uint256",
          "name": "predictionId",
          "type": "uint256"
        },
        {
          "indexed": false,
          "internalType": "string",
          "name": "question",
          "type": "string"
        },
        {
          "indexed": false,
          "internalType": "uint256",
          "name": "deadline",
          "type": "uint256"
        }
      ],
      "name": "PredictionCreated",
      "type": "event"
    },
    {
      "anonymous": false,
      "inputs": [
        {
          "indexed": true,
          "internalType": "uint256",
          "name": "predictionId",
          "type": "uint256"
        },
        {
          "indexed": false,
          "internalType": "uint256",
          "name": "outcome",
          "type": "uint256"
        }
      ],
      "name": "PredictionResolved",
      "type": "event"
    },
    {
      "anonymous": false,
      "inputs": [
        {
          "indexed": true,
          "internalType": "uint256",
          "name": "predictionId",
          "type": "uint256"
        },
        {
          "indexed": false,
          "internalType": "address",
          "name": "claimant",
          "type": "address"
        },
        {
          "indexed": false,
          "internalType": "uint256",
          "name": "amount",
          "type": "uint256"
        }
      ],
      "name": "RewardClaimed",
      "type": "event"
    },
    {
      "inputs": [],
      "name": "owner",
      "outputs": [
        {
          "internalType": "address",
          "name": "",
          "type": "address"
        }
      ],
      "stateMutability": "view",
      "type": "function",
      "constant": true
    },
    {
      "inputs": [],
      "name": "predictionCount",
      "outputs": [
        {
          "internalType": "uint256",
          "name": "",
          "type": "uint256"
        }
      ],
      "stateMutability": "view",
      "type": "function",
      "constant": true
    },
    {
      "inputs": [
        {
          "internalType": "uint256",
          "name": "",
          "type": "uint256"
        }
      ],
      "name": "predictions",
      "outputs": [
        {
          "internalType": "string",
          "name": "question",
          "type": "string"
        },
        {
          "internalType": "uint256",
          "name": "deadline",
          "type": "uint256"
        },
        {
          "internalType": "uint256",
          "name": "totalYesBets",
          "type": "uint256"
        },
        {
          "internalType": "uint256",
          "name": "totalNoBets",
          "type": "uint256"
        },
        {
          "internalType": "uint256",
          "name": "outcome",
          "type": "uint256"
        },
        {
          "internalType": "bool",
          "name": "resolved",
          "type": "bool"
        }
      ],
      "stateMutability": "view",
      "type": "function",
      "constant": true
    },
    {
      "stateMutability": "payable",
      "type": "receive",
      "payable": true
    },
    {
      "inputs": [
        {
          "internalType": "string",
          "name": "_question",
          "type": "string"
        },
        {
          "internalType": "uint256",
          "name": "_deadline",
          "type": "uint256"
        }
      ],
      "name": "createPrediction",
      "outputs": [],
      "stateMutability": "nonpayable",
      "type": "function"
    },
    {
      "inputs": [
        {
          "internalType": "uint256",
          "name": "_predictionId",
          "type": "uint256"
        },
        {
          "internalType": "uint8",
          "name": "_choice",
          "type": "uint8"
        }
      ],
      "name": "placeBet",
      "outputs": [],
      "stateMutability": "payable",
      "type": "function",
      "payable": true
    },
    {
      "inputs": [
        {
          "internalType": "uint256",
          "name": "_predictionId",
          "type": "uint256"
        },
        {
          "internalType": "uint256",
          "name": "_outcome",
          "type": "uint256"
        }
      ],
      "name": "resolvePrediction",
      "outputs": [],
      "stateMutability": "nonpayable",
      "type": "function"
    },
    {
      "inputs": [
        {
          "internalType": "uint256",
          "name": "_predictionId",
          "type": "uint256"
        }
      ],
      "name": "claimReward",
      "outputs": [],
      "stateMutability": "nonpayable",
      "type": "function"
    }
  ],
  "bytecode": "0x608060405234801561001057600080fd5b50600160008190555033600360006101000a81548173ffffffffffffffffffffffffffffffffffffffff021916908373ffffffffffffffffffffffffffffffffffffffff160217905550611748806100696000396000f3fe6080604052600436106100735760003560e01c80638e0596a21161004e5780638e0596a2146101085780639576d36614610133578063ae169a501461015c578063fefac3db146101855761007a565b80624fbbb01461007f57806303edf914146100c15780638da5cb5b146100dd5761007a565b3661007a57005b600080fd5b34801561008b57600080fd5b506100a660048036038101906100a19190610ce3565b6101ae565b6040516100b8969594939291906111a4565b60405180910390f35b6100db60048036038101906100d69190610d48565b61027f565b005b3480156100e957600080fd5b506100f261059d565b6040516100ff91906110f9565b60405180910390f35b34801561011457600080fd5b5061011d6105c3565b60405161012a919061138c565b60405180910390f35b34801561013f57600080fd5b5061015a60048036038101906101559190610c8f565b6105c9565b005b34801561016857600080fd5b50610183600480360381019061017e9190610ce3565b61069f565b005b34801561019157600080fd5b506101ac60048036038101906101a79190610d0c565b61090f565b005b60026020528060005260406000206000915090508060000180546101d19061159c565b80601f01602080910402602001604051908101604052809291908181526020018280546101fd9061159c565b801561024a5780601f1061021f5761010080835404028352916020019161024a565b820191906000526020600020905b81548152906001019060200180831161022d57829003601f168201915b5050505050908060010154908060050154908060060154908060070154908060080160009054906101000a900460ff16905086565b610287610b00565b60018160ff16148061029c575060028160ff16145b6102db576040517f08c379a00000000000000000000000000000000000000000000000000000000081526004016102d2906112ec565b60405180910390fd5b600060026000848152602001908152602001600020905080600101544210610338576040517f08c379a000000000000000000000000000000000000000000000000000000000815260040161032f9061134c565b60405180910390fd5b6000341161037b576040517f08c379a0000000000000000000000000000000000000000000000000000000008152600401610372906112ac565b60405180910390fd5b60008160030160003373ffffffffffffffffffffffffffffffffffffffff1673ffffffffffffffffffffffffffffffffffffffff1681526020019081526020016000209050348160000160008282546103d49190611424565b92505081905550828160010160006101000a81548160ff021916908360ff1602179055508160040160003373ffffffffffffffffffffffffffffffffffffffff1673ffffffffffffffffffffffffffffffffffffffff16815260200190815260200160002060009054906101000a900460ff1661050b5781600201339080600181540180825580915050600190039060005260206000200160009091909190916101000a81548173ffffffffffffffffffffffffffffffffffffffff021916908373ffffffffffffffffffffffffffffffffffffffff16021790555060018260040160003373ffffffffffffffffffffffffffffffffffffffff1673ffffffffffffffffffffffffffffffffffffffff16815260200190815260200160002060006101000a81548160ff0219169083151502179055505b60018360ff161415610537573482600501600082825461052b9190611424565b92505081905550610553565b3482600601600082825461054b9190611424565b925050819055505b837fe90186097616cbeb30ffc786b44501e1362f5e0a316a96c5ab82a0551f9d2f053334866040516105879392919061113d565b60405180910390a25050610599610b50565b5050565b600360009054906101000a900473ffffffffffffffffffffffffffffffffffffffff1681565b60015481565b42811161060b576040517f08c379a00000000000000000000000000000000000000000000000000000000081526004016106029061130c565b60405180910390fd5b600060016000815480929190610620906115ce565b919050559050600060026000838152602001908152602001600020905083816000019080519060200190610655929190610b5a565b50828160010181905550817f259c48cf151ba2e96755462b690d31372c37d0eee3779b078f1f7992e3b38ae78585604051610691929190611174565b60405180910390a250505050565b6106a7610b00565b60006002600083815260200190815260200160002090508060080160009054906101000a900460ff1661070f576040517f08c379a00000000000000000000000000000000000000000000000000000000081526004016107069061128c565b60405180910390fd5b60008160030160003373ffffffffffffffffffffffffffffffffffffffff1673ffffffffffffffffffffffffffffffffffffffff16815260200190815260200160002090506000816000015411801561077757508060010160019054906101000a900460ff16155b6107b6576040517f08c379a00000000000000000000000000000000000000000000000000000000081526004016107ad9061132c565b60405180910390fd5b81600701548160010160009054906101000a900460ff1660ff1614610810576040517f08c379a0000000000000000000000000000000000000000000000000000000008152600401610807906112cc565b60405180910390fd5b6000600183600701541461082857826006015461082e565b82600501545b9050600081846006015485600501546108479190611424565b846000015461085691906114ab565b610860919061147a565b905060018360010160016101000a81548160ff0219169083151502179055503373ffffffffffffffffffffffffffffffffffffffff166108fc829081150290604051600060405180830381858888f193505050501580156108c5573d6000803e3d6000fd5b50847f24b5efa61dd1cfc659205a97fb8ed868f3cb8c81922bab2b96423e5de1de2cb733836040516108f8929190611114565b60405180910390a25050505061090c610b50565b50565b600360009054906101000a900473ffffffffffffffffffffffffffffffffffffffff1673ffffffffffffffffffffffffffffffffffffffff163373ffffffffffffffffffffffffffffffffffffffff161461099f576040517f08c379a00000000000000000000000000000000000000000000000000000000081526004016109969061122c565b60405180910390fd5b60018114806109ae5750600281145b6109ed576040517f08c379a00000000000000000000000000000000000000000000000000000000081526004016109e49061124c565b60405180910390fd5b60006002600084815260200190815260200160002090508060080160009054906101000a900460ff1615610a56576040517f08c379a0000000000000000000000000000000000000000000000000000000008152600401610a4d9061126c565b60405180910390fd5b8060010154421015610a9d576040517f08c379a0000000000000000000000000000000000000000000000000000000008152600401610a949061120c565b60405180910390fd5b81816007018190555060018160080160006101000a81548160ff021916908315150217905550827fe0d11dcca65d89777e74a05aabfc99281a4c018644b33af1b397a7dbf5e2911b83604051610af3919061138c565b60405180910390a2505050565b60026000541415610b46576040517f08c379a0000000000000000000000000000000000000000000000000000000008152600401610b3d9061136c565b60405180910390fd5b6002600081905550565b6001600081905550565b828054610b669061159c565b90600052602060002090601f016020900481019282610b885760008555610bcf565b82601f10610ba157805160ff1916838001178555610bcf565b82800160010185558215610bcf579182015b82811115610bce578251825591602001919060010190610bb3565b5b509050610bdc9190610be0565b5090565b5b80821115610bf9576000816000905550600101610be1565b5090565b6000610c10610c0b846113d8565b6113a7565b905082815260208101848484011115610c2857600080fd5b610c3384828561155a565b509392505050565b600082601f830112610c4c57600080fd5b8135610c5c848260208601610bfd565b91505092915050565b600081359050610c74816116e4565b92915050565b600081359050610c89816116fb565b92915050565b60008060408385031215610ca257600080fd5b600083013567ffffffffffffffff811115610cbc57600080fd5b610cc885828601610c3b565b9250506020610cd985828601610c65565b9150509250929050565b600060208284031215610cf557600080fd5b6000610d0384828501610c65565b91505092915050565b60008060408385031215610d1f57600080fd5b6000610d2d85828601610c65565b9250506020610d3e85828601610c65565b9150509250929050565b60008060408385031215610d5b57600080fd5b6000610d6985828601610c65565b9250506020610d7a85828601610c7a565b9150509250929050565b610d8d81611505565b82525050565b610d9c81611517565b82525050565b6000610dad82611408565b610db78185611413565b9350610dc7818560208601611569565b610dd0816116d3565b840191505092915050565b6000610de8601183611413565b91507f446561646c696e65206e6f74206d65742e0000000000000000000000000000006000830152602082019050919050565b6000610e28601983611413565b91507f4f6e6c79206f776e65722063616e2063616c6c20746869732e000000000000006000830152602082019050919050565b6000610e68601083611413565b91507f496e76616c6964206f7574636f6d652e000000000000000000000000000000006000830152602082019050919050565b6000610ea8601183611413565b91507f416c7265616479207265736f6c7665642e0000000000000000000000000000006000830152602082019050919050565b6000610ee8600d83611413565b91507f4e6f74207265736f6c7665642e000000000000000000000000000000000000006000830152602082019050919050565b6000610f28601783611413565b91507f42657420616d6f756e74206d757374206265203e20302e0000000000000000006000830152602082019050919050565b6000610f68600983611413565b91507f596f75206c6f73742e00000000000000000000000000000000000000000000006000830152602082019050919050565b6000610fa8601d83611413565b91507f496e76616c69642063686f6963652028313d5965732c20323d4e6f292e0000006000830152602082019050919050565b6000610fe8601f83611413565b91507f446561646c696e65206d75737420626520696e20746865206675747572652e006000830152602082019050919050565b6000611028600e83611413565b91507f496e76616c696420636c61696d2e0000000000000000000000000000000000006000830152602082019050919050565b6000611068600f83611413565b91507f42657474696e6720636c6f7365642e00000000000000000000000000000000006000830152602082019050919050565b60006110a8601f83611413565b91507f5265656e7472616e637947756172643a207265656e7472616e742063616c6c006000830152602082019050919050565b6110e481611543565b82525050565b6110f38161154d565b82525050565b600060208201905061110e6000830184610d84565b92915050565b60006040820190506111296000830185610d84565b61113660208301846110db565b9392505050565b60006060820190506111526000830186610d84565b61115f60208301856110db565b61116c60408301846110ea565b949350505050565b6000604082019050818103600083015261118e8185610da2565b905061119d60208301846110db565b9392505050565b600060c08201905081810360008301526111be8189610da2565b90506111cd60208301886110db565b6111da60408301876110db565b6111e760608301866110db565b6111f460808301856110db565b61120160a0830184610d93565b979650505050505050565b6000602082019050818103600083015261122581610ddb565b9050919050565b6000602082019050818103600083015261124581610e1b565b9050919050565b6000602082019050818103600083015261126581610e5b565b9050919050565b6000602082019050818103600083015261128581610e9b565b9050919050565b600060208201905081810360008301526112a581610edb565b9050919050565b600060208201905081810360008301526112c581610f1b565b9050919050565b600060208201905081810360008301526112e581610f5b565b9050919050565b6000602082019050818103600083015261130581610f9b565b9050919050565b6000602082019050818103600083015261132581610fdb565b9050919050565b600060208201905081810360008301526113458161101b565b9050919050565b600060208201905081810360008301526113658161105b565b9050919050565b600060208201905081810360008301526113858161109b565b9050919050565b60006020820190506113a160008301846110db565b92915050565b6000604051905081810181811067ffffffffffffffff821117156113ce576113cd6116a4565b5b8060405250919050565b600067ffffffffffffffff8211156113f3576113f26116a4565b5b601f19601f8301169050602081019050919050565b600081519050919050565b600082825260208201905092915050565b600061142f82611543565b915061143a83611543565b9250827fffffffffffffffffffffffffffffffffffffffffffffffffffffffffffffffff0382111561146f5761146e611617565b5b828201905092915050565b600061148582611543565b915061149083611543565b9250826114a05761149f611646565b5b828204905092915050565b60006114b682611543565b91506114c183611543565b9250817fffffffffffffffffffffffffffffffffffffffffffffffffffffffffffffffff04831182151516156114fa576114f9611617565b5b828202905092915050565b600061151082611523565b9050919050565b60008115159050919050565b600073ffffffffffffffffffffffffffffffffffffffff82169050919050565b6000819050919050565b600060ff82169050919050565b82818337600083830152505050565b60005b8381101561158757808201518184015260208101905061156c565b83811115611596576000848401525b50505050565b600060028204905060018216806115b457607f821691505b602082108114156115c8576115c7611675565b5b50919050565b60006115d982611543565b91507fffffffffffffffffffffffffffffffffffffffffffffffffffffffffffffffff82141561160c5761160b611617565b5b600182019050919050565b7f4e487b7100000000000000000000000000000000000000000000000000000000600052601160045260246000fd5b7f4e487b7100000000000000000000000000000000000000000000000000000000600052601260045260246000fd5b7f4e487b7100000000000000000000000000000000000000000000000000000000600052602260045260246000fd5b7f4e487b7100000000000000000000000000000000000000000000000000000000600052604160045260246000fd5b6000601f19601f8301169050919050565b6116ed81611543565b81146116f857600080fd5b50565b6117048161154d565b811461170f57600080fd5b5056fea264697066735822122020caa5553baa94eddc2fb29197a523323c140c02b8b0e9b100322a9e0c76522864736f6c63430008000033",
  "immutableReferences": {},
  "source": "// SPDX-License-Identifier: MIT\r\npragma solidity ^0.8.0;\r\n\r\nimport \"@openzeppelin/contracts/security/ReentrancyGuard.sol\";\r\n\r\ncontract PredictionMarket is ReentrancyGuard {\r\n    struct BetInfo {\r\n        uint256 amount;\r\n        uint8 choice; // 1 = Yes, 2 = No\r\n        bool claimed;\r\n    }\r\n\r\n    struct Prediction {\r\n        string question;\r\n        uint256 deadline;\r\n        address[] participants;\r\n        mapping(address => BetInfo) bets;\r\n        mapping(address => bool) hasParticipated;\r\n        uint256 totalYesBets;\r\n        uint256 totalNoBets;\r\n        uint256 outcome; // 0 = unresolved, 1 = Yes, 2 = No\r\n        bool resolved;\r\n    }\r\n\r\n    uint256 public predictionCount;\r\n    mapping(uint256 => Prediction) public predictions;\r\n    address public owner;\r\n\r\n    event PredictionCreated(uint256 indexed predictionId, string question, uint256 deadline);\r\n    event BetPlaced(uint256 indexed predictionId, address participant, uint256 amount, uint8 choice);\r\n    event PredictionResolved(uint256 indexed predictionId, uint256 outcome);\r\n    event RewardClaimed(uint256 indexed predictionId, address claimant, uint256 amount);\r\n\r\n    modifier onlyOwner() {\r\n        require(msg.sender == owner, \"Only owner can call this.\");\r\n        _;\r\n    }\r\n\r\n    constructor() {\r\n        owner = msg.sender;\r\n    }\r\n\r\n    function createPrediction(string memory _question, uint256 _deadline) external {\r\n        require(_deadline > block.timestamp, \"Deadline must be in the future.\");\r\n        uint256 predictionId = predictionCount++;\r\n        Prediction storage p = predictions[predictionId];\r\n        p.question = _question;\r\n        p.deadline = _deadline;\r\n        emit PredictionCreated(predictionId, _question, _deadline);\r\n    }\r\n\r\n    function placeBet(uint256 _predictionId, uint8 _choice) external payable nonReentrant {\r\n        require(_choice == 1 || _choice == 2, \"Invalid choice (1=Yes, 2=No).\");\r\n        Prediction storage p = predictions[_predictionId];\r\n        require(block.timestamp < p.deadline, \"Betting closed.\");\r\n        require(msg.value > 0, \"Bet amount must be > 0.\");\r\n\r\n        BetInfo storage bet = p.bets[msg.sender];\r\n        bet.amount += msg.value;\r\n        bet.choice = _choice;\r\n\r\n        if (!p.hasParticipated[msg.sender]) {\r\n            p.participants.push(msg.sender);\r\n            p.hasParticipated[msg.sender] = true;\r\n        }\r\n\r\n        if (_choice == 1) p.totalYesBets += msg.value;\r\n        else p.totalNoBets += msg.value;\r\n\r\n        emit BetPlaced(_predictionId, msg.sender, msg.value, _choice);\r\n    }\r\n\r\n    function resolvePrediction(uint256 _predictionId, uint256 _outcome) external onlyOwner {\r\n        require(_outcome == 1 || _outcome == 2, \"Invalid outcome.\");\r\n        Prediction storage p = predictions[_predictionId];\r\n        require(!p.resolved, \"Already resolved.\");\r\n        require(block.timestamp >= p.deadline, \"Deadline not met.\");\r\n        p.outcome = _outcome;\r\n        p.resolved = true;\r\n        emit PredictionResolved(_predictionId, _outcome);\r\n    }\r\n\r\n    function claimReward(uint256 _predictionId) external nonReentrant {\r\n        Prediction storage p = predictions[_predictionId];\r\n        require(p.resolved, \"Not resolved.\");\r\n        BetInfo storage bet = p.bets[msg.sender];\r\n        require(bet.amount > 0 && !bet.claimed, \"Invalid claim.\");\r\n        require(bet.choice == p.outcome, \"You lost.\");\r\n\r\n        uint256 totalPool = (p.outcome == 1) ? p.totalYesBets : p.totalNoBets;\r\n        uint256 reward = (bet.amount * (p.totalYesBets + p.totalNoBets)) / totalPool;\r\n\r\n        bet.claimed = true;\r\n        payable(msg.sender).transfer(reward);\r\n        emit RewardClaimed(_predictionId, msg.sender, reward);\r\n    }\r\n\r\n    receive() external payable {}\r\n}",
  "sourcePath": "S:\\miniproject\\contracts\\PredictionMarket.sol",
  "compiler": {
    "name": "solc",
    "version": "0.8.0+commit.c7dfd78e.Emscripten.clang"
  },
  "schemaVersion": "3.4.16",
  "updatedAt": "2025-02-04T13:53:28.948Z",
  "networkType": "ethereum",
  "devdoc": {
    "kind": "dev",
    "methods": {},
    "version": 1
  },
  "userdoc": {
    "kind": "user",
    "methods": {},
    "version": 1
  }
}